{
  "contractName": "Round",
  "abi": [
    {
      "inputs": [
        {
          "internalType": "address",
          "name": "_creator",
          "type": "address"
        }
      ],
      "stateMutability": "nonpayable",
      "type": "constructor"
    },
    {
      "anonymous": false,
      "inputs": [
        {
          "indexed": true,
          "internalType": "address",
          "name": "previousOwner",
          "type": "address"
        },
        {
          "indexed": true,
          "internalType": "address",
          "name": "newOwner",
          "type": "address"
        }
      ],
      "name": "OwnershipTransferred",
      "type": "event"
    },
    {
      "inputs": [],
      "name": "owner",
      "outputs": [
        {
          "internalType": "address",
          "name": "",
          "type": "address"
        }
      ],
      "stateMutability": "view",
      "type": "function"
    },
    {
      "inputs": [
        {
          "internalType": "uint256",
          "name": "",
          "type": "uint256"
        }
      ],
      "name": "players",
      "outputs": [
        {
          "internalType": "address",
          "name": "",
          "type": "address"
        }
      ],
      "stateMutability": "view",
      "type": "function"
    },
    {
      "inputs": [],
      "name": "renounceOwnership",
      "outputs": [],
      "stateMutability": "nonpayable",
      "type": "function"
    },
    {
      "inputs": [
        {
          "internalType": "address",
          "name": "newOwner",
          "type": "address"
        }
      ],
      "name": "transferOwnership",
      "outputs": [],
      "stateMutability": "nonpayable",
      "type": "function"
    },
    {
      "inputs": [],
      "name": "makeBet",
      "outputs": [],
      "stateMutability": "nonpayable",
      "type": "function"
    },
    {
      "inputs": [],
      "name": "getBets",
      "outputs": [
        {
          "internalType": "address[]",
          "name": "",
          "type": "address[]"
        }
      ],
      "stateMutability": "view",
      "type": "function"
    }
  ],
  "bytecode": "0x60806040523480156200001157600080fd5b5060405162000c3438038062000c34833981810160405281019062000037919062000291565b620000576200004b6200006f60201b60201c565b6200007760201b60201c565b62000068816200013b60201b60201c565b5062000431565b600033905090565b60008060009054906101000a900473ffffffffffffffffffffffffffffffffffffffff169050816000806101000a81548173ffffffffffffffffffffffffffffffffffffffff021916908373ffffffffffffffffffffffffffffffffffffffff1602179055508173ffffffffffffffffffffffffffffffffffffffff168173ffffffffffffffffffffffffffffffffffffffff167f8be0079c531659141344cd1fd0a4f28419497f9722a3daafe3b4186f6b6457e060405160405180910390a35050565b6200014b6200006f60201b60201c565b73ffffffffffffffffffffffffffffffffffffffff16620001716200025160201b60201c565b73ffffffffffffffffffffffffffffffffffffffff1614620001ca576040517f08c379a0000000000000000000000000000000000000000000000000000000008152600401620001c19062000333565b60405180910390fd5b600073ffffffffffffffffffffffffffffffffffffffff168173ffffffffffffffffffffffffffffffffffffffff1614156200023d576040517f08c379a0000000000000000000000000000000000000000000000000000000008152600401620002349062000311565b60405180910390fd5b6200024e816200007760201b60201c565b50565b60008060009054906101000a900473ffffffffffffffffffffffffffffffffffffffff16905090565b6000815190506200028b8162000417565b92915050565b600060208284031215620002aa57620002a96200039a565b5b6000620002ba848285016200027a565b91505092915050565b6000620002d260268362000355565b9150620002df826200039f565b604082019050919050565b6000620002f960208362000355565b91506200030682620003ee565b602082019050919050565b600060208201905081810360008301526200032c81620002c3565b9050919050565b600060208201905081810360008301526200034e81620002ea565b9050919050565b600082825260208201905092915050565b600062000373826200037a565b9050919050565b600073ffffffffffffffffffffffffffffffffffffffff82169050919050565b600080fd5b7f4f776e61626c653a206e6577206f776e657220697320746865207a65726f206160008201527f6464726573730000000000000000000000000000000000000000000000000000602082015250565b7f4f776e61626c653a2063616c6c6572206973206e6f7420746865206f776e6572600082015250565b620004228162000366565b81146200042e57600080fd5b50565b6107f380620004416000396000f3fe608060405234801561001057600080fd5b50600436106100625760003560e01c8063561e91a114610067578063715018a6146100715780638da5cb5b1461007b578063a6afd5fd14610099578063f2fde38b146100b7578063f71d96cb146100d3575b600080fd5b61006f610103565b005b61007961016f565b005b6100836101f7565b604051610090919061060f565b60405180910390f35b6100a1610220565b6040516100ae919061062a565b60405180910390f35b6100d160048036038101906100cc91906104db565b6102ae565b005b6100ed60048036038101906100e89190610508565b6103a6565b6040516100fa919061060f565b60405180910390f35b600161010d6103e5565b9080600181540180825580915050600190039060005260206000200160009091909190916101000a81548173ffffffffffffffffffffffffffffffffffffffff021916908373ffffffffffffffffffffffffffffffffffffffff160217905550565b6101776103e5565b73ffffffffffffffffffffffffffffffffffffffff166101956101f7565b73ffffffffffffffffffffffffffffffffffffffff16146101eb576040517f08c379a00000000000000000000000000000000000000000000000000000000081526004016101e29061066c565b60405180910390fd5b6101f560006103ed565b565b60008060009054906101000a900473ffffffffffffffffffffffffffffffffffffffff16905090565b606060018054806020026020016040519081016040528092919081815260200182805480156102a457602002820191906000526020600020905b8160009054906101000a900473ffffffffffffffffffffffffffffffffffffffff1673ffffffffffffffffffffffffffffffffffffffff168152602001906001019080831161025a575b5050505050905090565b6102b66103e5565b73ffffffffffffffffffffffffffffffffffffffff166102d46101f7565b73ffffffffffffffffffffffffffffffffffffffff161461032a576040517f08c379a00000000000000000000000000000000000000000000000000000000081526004016103219061066c565b60405180910390fd5b600073ffffffffffffffffffffffffffffffffffffffff168173ffffffffffffffffffffffffffffffffffffffff16141561039a576040517f08c379a00000000000000000000000000000000000000000000000000000000081526004016103919061064c565b60405180910390fd5b6103a3816103ed565b50565b600181815481106103b657600080fd5b906000526020600020016000915054906101000a900473ffffffffffffffffffffffffffffffffffffffff1681565b600033905090565b60008060009054906101000a900473ffffffffffffffffffffffffffffffffffffffff169050816000806101000a81548173ffffffffffffffffffffffffffffffffffffffff021916908373ffffffffffffffffffffffffffffffffffffffff1602179055508173ffffffffffffffffffffffffffffffffffffffff168173ffffffffffffffffffffffffffffffffffffffff167f8be0079c531659141344cd1fd0a4f28419497f9722a3daafe3b4186f6b6457e060405160405180910390a35050565b6000813590506104c08161078f565b92915050565b6000813590506104d5816107a6565b92915050565b6000602082840312156104f1576104f0610712565b5b60006104ff848285016104b1565b91505092915050565b60006020828403121561051e5761051d610712565b5b600061052c848285016104c6565b91505092915050565b6000610541838361054d565b60208301905092915050565b610556816106d6565b82525050565b610565816106d6565b82525050565b60006105768261069c565b61058081856106b4565b935061058b8361068c565b8060005b838110156105bc5781516105a38882610535565b97506105ae836106a7565b92505060018101905061058f565b5085935050505092915050565b60006105d66026836106c5565b91506105e182610717565b604082019050919050565b60006105f96020836106c5565b915061060482610766565b602082019050919050565b6000602082019050610624600083018461055c565b92915050565b60006020820190508181036000830152610644818461056b565b905092915050565b60006020820190508181036000830152610665816105c9565b9050919050565b60006020820190508181036000830152610685816105ec565b9050919050565b6000819050602082019050919050565b600081519050919050565b6000602082019050919050565b600082825260208201905092915050565b600082825260208201905092915050565b60006106e1826106e8565b9050919050565b600073ffffffffffffffffffffffffffffffffffffffff82169050919050565b6000819050919050565b600080fd5b7f4f776e61626c653a206e6577206f776e657220697320746865207a65726f206160008201527f6464726573730000000000000000000000000000000000000000000000000000602082015250565b7f4f776e61626c653a2063616c6c6572206973206e6f7420746865206f776e6572600082015250565b610798816106d6565b81146107a357600080fd5b50565b6107af81610708565b81146107ba57600080fd5b5056fea26469706673582212207a25f67534f059bc7d7e0a2a70b9b7e2e84abf55c72754fb171ef6efc3b4d87164736f6c63430008070033",
  "immutableReferences": {},
  "source": "// contracts/Round.sol\r\n// SPDX-License-Identifier: MIT\r\npragma solidity ^0.8.0;\r\n\r\nimport \"@openzeppelin/contracts/access/Ownable.sol\";\r\n\r\ncontract Round is Ownable {\r\n    address[] public players;\r\n    \r\n    constructor(address _creator) {\r\n        transferOwnership(_creator);\r\n\r\n    }\r\n\r\n    function makeBet() public {\r\n        players.push(_msgSender());\r\n    } \r\n\r\n    function getBets() public view returns (address[] memory) {\r\n        return players;\r\n    }\r\n}",
  "sourcePath": "C:\\waveaccess\\Solidity\\learn\\contracts\\Round.sol",
  "compiler": {
    "name": "solc",
    "version": "0.8.7+commit.e28d00a7.Emscripten.clang"
  },
  "schemaVersion": "3.4.3",
  "updatedAt": "2021-11-03T14:03:27.505Z",
  "devdoc": {
    "kind": "dev",
    "methods": {
      "owner()": {
        "details": "Returns the address of the current owner."
      },
      "renounceOwnership()": {
        "details": "Leaves the contract without owner. It will not be possible to call `onlyOwner` functions anymore. Can only be called by the current owner. NOTE: Renouncing ownership will leave the contract without an owner, thereby removing any functionality that is only available to the owner."
      },
      "transferOwnership(address)": {
        "details": "Transfers ownership of the contract to a new account (`newOwner`). Can only be called by the current owner."
      }
    },
    "version": 1
  },
  "userdoc": {
    "kind": "user",
    "methods": {},
    "version": 1
  }
}